:100000000C9462000C948A000C948A000C948A0070
:100010000C948A000C948A000C948A000C948A0038
:100020000C948A000C948A000C948A000C948A0028
:100030000C948A000C948A000C948A000C948A0018
:100040000C94F4000C948A000C94CA030C94FC03E6
:100050000C948A000C948A000C948A000C948A00F8
:100060000C948A000C948A00000000080002010031
:100070000003040700000000000000000102040863
:100080001020408001020408102001020408102002
:10009000040404040404040402020202020203032E
:1000A00003030303000000002300260029000000D2
:1000B0000000250028002B0000000000240027007D
:1000C0002A002C0411241FBECFEFD8E0DEBFCDBF25
:1000D00011E0A0E0B1E0E4EAF9E002C005900D9281
:1000E000AA31B107D9F721E0AAE1B1E001C01D9220
:1000F000A03CB207E1F710E0C4ECD0E004C02297C6
:10010000FE010E94CC04C23CD107C9F70E949804AA
:100110000C94D0040C94000060E0809108010E94CF
:10012000ED0161E0809106010E94ED0126E040E0D2
:1001300056E960E070E083E291E00C94680361E0CE
:10014000809106010E9426028CE00E945C028130B0
:10015000910529F4909303018093020104C0109249
:10016000030110920201209102013091030180915C
:1001700000019091010128173907A9F1809104012C
:1001800080FD1BC060E0809106010E942602E09184
:100190002301F09124010190F081E02D61E083E2E0
:1001A00091E009956091020188E00E94ED016AE00A
:1001B00070E080E090E00E9461016091000188E0C1
:1001C0000E94ED0180910201909103019093010141
:1001D0008093000180910401909105010196909314
:1001E00005018093040108951F920F920FB60F929C
:1001F00011242F933F938F939F93AF93BF9380913D
:100200001B0190911C01A0911D01B0911E01309124
:100210001A0123E0230F2D3720F40196A11DB11DF3
:1002200005C026E8230F0296A11DB11D20931A01D7
:1002300080931B0190931C01A0931D01B0931E019C
:1002400080911F0190912001A0912101B091220184
:100250000196A11DB11D80931F0190932001A093D1
:100260002101B0932201BF91AF919F918F913F9156
:100270002F910F900FBE0F901F9018953FB7F894D5
:1002800080911F0190912001A0912101B091220144
:1002900026B5A89B05C02F3F19F00196A11DB11DE1
:1002A0003FBF6627782F892F9A2F620F711D811DFE
:1002B000911D42E0660F771F881F991F4A95D1F75D
:1002C0000895CF92DF92EF92FF92CF93DF936B016D
:1002D0007C010E943E01EB01C114D104E104F10450
:1002E00089F00E94A7040E943E016C1B7D0B683EB2
:1002F000734090F381E0C81AD108E108F108C851B1
:10030000DC4FEACFDF91CF91FF90EF90DF90CF905D
:100310000895789484B5826084BD84B5816084BD7D
:1003200085B5826085BD85B5816085BDEEE6F0E06E
:10033000808181608083E1E8F0E0108280818260CA
:100340008083808181608083E0E8F0E0808181604B
:100350008083E1EBF0E0808184608083E0EBF0E07B
:10036000808181608083EAE7F0E08081846080831F
:1003700080818260808380818160808380818068C9
:1003800080831092C1000895833081F028F4813079
:1003900099F08230A1F008958730A9F08830B9F043
:1003A0008430D1F4809180008F7D03C080918000E3
:1003B0008F7780938000089584B58F7702C084B5CD
:1003C0008F7D84BD08958091B0008F7703C08091A8
:1003D000B0008F7D8093B0000895CF93DF9390E0BD
:1003E000FC01E458FF4F2491FC01E057FF4F84913A
:1003F000882349F190E0880F991FFC01E854FF4FD2
:10040000A591B49182559F4FFC01C591D4919FB79E
:10041000611108C0F8948C91209582238C93888177
:1004200082230AC0623051F4F8948C91322F3095B7
:1004300083238C938881822B888304C0F8948C91C9
:10044000822B8C939FBFDF91CF9108950F931F93C1
:10045000CF93DF931F92CDB7DEB7282F30E0F9019D
:10046000E859FF4F8491F901E458FF4F1491F901C5
:10047000E057FF4F04910023C9F0882321F06983DE
:100480000E94C4016981E02FF0E0EE0FFF1FE255EA
:10049000FF4FA591B4919FB7F8948C91611103C05F
:1004A0001095812301C0812B8C939FBF0F90DF910A
:1004B000CF911F910F910895CF93DF93282F30E0B4
:1004C000F901E859FF4F8491F901E458FF4FD491A5
:1004D000F901E057FF4FC491CC2391F081110E94A4
:1004E000C401EC2FF0E0EE0FFF1FEC55FF4FA5917C
:1004F000B4912C912D2381E090E021F480E002C0A2
:1005000080E090E0DF91CF910895FC01818D228DF4
:1005100090E0805C9F4F821B91098F73992708950B
:10052000FC01918D828D981731F0828DE80FF11DBD
:10053000858D90E008958FEF9FEF0895FC01918DD8
:10054000828D981761F0828DDF01A80FB11D5D9635
:100550008C91928D9F5F9F73928F90E008958FEFA3
:100560009FEF089582E294E0892B49F080E090E0CB
:10057000892B29F00E94220481110C940000089517
:10058000FC01848DDF01A80FB11DA35ABF4F2C9130
:10059000848D90E001968F739927848FA689B789FF
:1005A0002C93A089B1898C9180648C93938D848DD8
:1005B000981306C00288F389E02D80818F7D8083A7
:1005C0000895CF93DF93EC01888D8823C9F0EA89E1
:1005D000FB89808185FD05C0A889B9898C9186FD3C
:1005E0000FC00FB607FCF5CF808185FFF2CFA88939
:1005F000B9898C9185FFEDCFCE010E94C002E7CF73
:10060000DF91CF910895CF92DF92FF920F931F93C6
:10061000CF93DF931F92CDB7DEB76C0181E0D60197
:1006200058968C9358975B969C915B975C968C91AF
:100630005C97981307C05096ED91FC91519780817B
:1006400085FD2EC0F601038D10E00F5F1F4F0F7365
:100650001127F02EF601848DF81211C00FB607FC99
:10066000F9CFD6015096ED91FC915197808185FF8D
:10067000F1CFC60169830E94C0026981EBCF838DEF
:10068000E80FF11DE35AFF4F6083D6015B960C9390
:100690005B975296ED91FC915397808180620CC0DC
:1006A000D6015696ED91FC91579760835096ED9147
:1006B000FC91519780818064808381E090E00F906D
:1006C000DF91CF911F910F91FF90DF90CF90089510
:1006D000BF92CF92DF92EF92FF92CF93DF93EC0124
:1006E0006A017B01B22EE889F98982E08083411595
:1006F00081EE580761057105A1F060E079E08DE3B6
:1007000090E0A70196010E94A804215031094109F7
:1007100051095695479537952795211580E138075A
:1007200098F0E889F989108260E874E88EE190E039
:10073000A70196010E94A8042150310941095109DD
:100740005695479537952795EC85FD853083EE8541
:10075000FF852083188EEC89FD89B082EA89FB89A8
:10076000808180618083EA89FB89808188608083C1
:10077000EA89FB89808180688083EA89FB8980819E
:100780008F7D8083DF91CF91FF90EF90DF90CF90AE
:10079000BF9008951F920F920FB60F9211242F93BE
:1007A0008F939F93EF93FF93E0913301F091340186
:1007B0008081E0913901F0913A0182FD12C090816F
:1007C00080913C018F5F8F7320913D01821751F022
:1007D000E0913C01F0E0ED5DFE4F958F80933C0190
:1007E00001C08081FF91EF919F918F912F910F9088
:1007F0000FBE0F901F9018951F920F920FB60F9279
:1008000011242F933F934F935F936F937F938F9315
:100810009F93AF93BF93EF93FF9383E291E00E9486
:10082000C002FF91EF91BF91AF919F918F917F9106
:100830006F915F914F913F912F910F900FBE0F904D
:100840001F90189583E291E00E94850221E0892B98
:1008500009F420E0822F08951092260110922501BC
:1008600088EE93E0A0E0B0E0809327019093280108
:10087000A0932901B0932A018EE091E09093240186
:100880008093230185EC90E09093300180932F01B9
:1008900084EC90E0909332018093310180EC90E001
:1008A000909334018093330181EC90E09093360172
:1008B0008093350182EC90E090933801809337016A
:1008C00086EC90E090933A018093390110923C01BC
:1008D00010923D0110923E0110923F010895CF9277
:1008E000DF92EF92FF920F931F93CF93DF937C01E0
:1008F0006A01EB0100E010E00C151D0571F0699133
:10090000D701ED91FC910190F081E02DC70109958F
:10091000892B19F00F5F1F4FEFCFC801DF91CF91E7
:100920001F910F91FF90EF90DF90CF900895089561
:100930000E9489010E9497040E948C00C2EBD2E0C1
:100940000E949F002097E1F30E94B202F9CF089520
:10095000A1E21A2EAA1BBB1BFD010DC0AA1FBB1FC3
:10096000EE1FFF1FA217B307E407F50720F0A21B35
:10097000B30BE40BF50B661F771F881F991F1A94A2
:1009800069F760957095809590959B01AC01BD01CC
:10099000CF010895EE0FFF1F0590F491E02D09940B
:0409A000F894FFCFF9
:1009A4000100010001000D000C0000000000030321
:0A09B4006F0485029E029002E1022A
:107E0000112484B714BE81FFF0D085E080938100F7
:107E100082E08093C00088E18093C10086E0809377
:107E2000C20080E18093C4008EE0C9D0259A86E02C
:107E300020E33CEF91E0309385002093840096BBD3
:107E4000B09BFECF1D9AA8958150A9F7CC24DD24C4
:107E500088248394B5E0AB2EA1E19A2EF3E0BF2EE7
:107E6000A2D0813461F49FD0082FAFD0023811F036
:107E7000013811F484E001C083E08DD089C08234E0
:107E800011F484E103C0853419F485E0A6D080C0E4
:107E9000853579F488D0E82EFF2485D0082F10E0AE
:107EA000102F00270E291F29000F111F8ED06801E7
:107EB0006FC0863521F484E090D080E0DECF843638
:107EC00009F040C070D06FD0082F6DD080E0C81688
:107ED00080E7D80618F4F601B7BEE895C0E0D1E017
:107EE00062D089930C17E1F7F0E0CF16F0E7DF06D8
:107EF00018F0F601B7BEE89568D007B600FCFDCFD4
:107F0000A601A0E0B1E02C9130E011968C91119780
:107F100090E0982F8827822B932B1296FA010C0160
:107F200087BEE89511244E5F5F4FF1E0A038BF0790
:107F300051F7F601A7BEE89507B600FCFDCF97BE46
:107F4000E89526C08437B1F42ED02DD0F82E2BD052
:107F50003CD0F601EF2C8F010F5F1F4F84911BD097
:107F6000EA94F801C1F70894C11CD11CFA94CF0C13
:107F7000D11C0EC0853739F428D08EE10CD085E9AC
:107F80000AD08FE07ACF813511F488E018D01DD067
:107F900080E101D065CF982F8091C00085FFFCCF94
:107FA0009093C60008958091C00087FFFCCF809118
:107FB000C00084FD01C0A8958091C6000895E0E648
:107FC000F0E098E1908380830895EDDF803219F02E
:107FD00088E0F5DFFFCF84E1DECF1F93182FE3DFCA
:107FE0001150E9F7F2DF1F91089580E0E8DFEE27F6
:047FF000FF270994CA
:027FFE00040479
:0400000300007E007B
:00000001FF
